:100000000C942A000C943F000C943F000C943F0089
:100010000C943F000C943F000C943F000C943F0064
:100020000C943F000C943F000C943F000C943F0054
:100030000C943F000C943F000C943F000C943F0044
:100040000C943F000C943F000C943F000C943F0034
:100050000C943F0011241FBECFE5D8E0DEBFCDBF1A
:1000600010E0A0E6B0E0E8E1F1E002C005900D92FA
:10007000AA36B107D9F70E9441000C948A000C946B
:100080000000CF93DF93CDB7DEB72A970FB6F89471
:10009000DEBF0FBECDBF8AE0E0E6F0E0DE011196E4
:1000A00001900D928A95E1F78FEF81BB87BB898123
:1000B00082BB898188BB2FEF42E587E02150404019
:1000C0008040E1F700C000009E01255F3F4FDE0148
:1000D00011968D9188BB898182BB9FEF42E587E0B5
:1000E000915040408040E1F700C00000FE01329690
:1000F000819182BB9FEF42E587E091504040804074
:10010000E1F700C00000E217F30791F7A217B30769
:0801100001F7DDCFF894FFCFE9
:0A0118003F065B4F666D7D07FF6F29
:00000001FF
